S3250800000000400120A90700084D07000853070008590700085F0700086507000800000000B1
S325080000200000000000000000000000006B0700087707000800000000830700088F07000882
S32508000040F1070008F1070008F1070008F1070008F1070008F1070008F1070008F107000892
S32508000060F1070008F1070008F1070008F1070008F1070008F1070008F1070008F107000872
S32508000080F1070008F1070008F1070008F1070008F1070008F1070008F1070008F107000852
S325080000a0F1070008F1070008F1070008F1070008F1070008F1070008F1070008F107000832
S325080000c0F1070008F1070008F1070008F1070008F1070008F1070008F1070008F107000812
S325080000e0F1070008F1070008F1070008F1070008F107000800000000F1070008F1070008F2
S32508000100F1070008F1070008F1070008F1070008F1070008F1070008F107000800000000D1
S32508000120F107000800000000000000000000000000000000000000005FF808F110B5054C4B
S32508000140237833B9044B13B10448AFF300800123237010BD0C00002000000000901C000825
S3250800016008B5034B1BB103490348AFF3008008BD0000000010000020901C000853B94AB929
S32508000180002908BF00281CBF4FF0FF314FF0FF3000F076B9ADF1080C6DE904CE00F006F89A
S325080001a0DDF804E0DDE9022304B070472DE9F047089E0D4604468846002B4DD18A429446D5
S325080001c068D9B2FA82F252B101FA02F3C2F1200120FA01F10CFA02FC41EA030894404FEA96
S325080001e01C41B8FBF1F71FFA8CFE01FB178807FB0EF0230C43EA084398420AD91CEB03034A
S3250800020007F1FF3580F01E81984240F21B81023F63441B1AB3FBF1F001FB103300FB0EFEFB
S32508000220A4B244EA0344A6450AD91CEB040400F1FF3380F00981A64540F206816444023865
S325080002400021A4EB0E0440EA07401EB10023D440C6E90043BDE8F0878B4208D9002E00F07D
S32508000260EE800021C6E900050846BDE8F087B3FA83F100294AD1AB4202D3824200F2FC806A
S32508000280841A65EB030301209846002EE2D0C6E90048DFE702B9FFDEB2FA82F2002A40F0AE
S325080002a09180A1EB0C0001214FEA1C471FFA8CFEB0FBF7F307FB1300250C45EA00450EFBCE
S325080002c003F0A84208D91CEB050503F1FF3802D2A84200F2CE8043462D1AB5FBF7F007FBAF
S325080002e010550EFB00FEA4B244EA0544A64508D91CEB040400F1FF3502D2A64500F2B680D0
S325080003002846A4EB0E0440EA03409EE7C1F120078B4022FA07FC4CEA030C25FA07FA4FEA6D
S325080003201C49BAFBF9F820FA07F309FB18AA8D401FFA8CFE1D4300FA01F308FB0EF02C0CD3
S3250800034044EA0A44A04202FA01F20BD91CEB040408F1FF3A80F08880A04240F28580A8F1F3
S3250800036002086444241AB4FBF9F009FB104400FB0EFEADB245EA0444A64508D91CEB0404D7
S3250800038000F1FF356CD2A6456AD90238644440EA0840A0FB0295A4EB0E04AC42C846AE46A7
S325080003a056D353D0002E69D0B3EB080264EB0E0422FA01F304FA07F71F43CC40C6E90074D6
S325080003c0002147E70CFA02FCC2F1200125FA01F34FEA1C4720FA01F195400D43B3FBF7F172
S325080003e007FB11331FFA8CFE280C40EA034001FB0EF3834204FA02F408D91CEB000001F1D5
S70500000000FA
